{
  "contractName": "FlipOracle",
  "abi": [
    {
      "inputs": [],
      "payable": false,
      "stateMutability": "nonpayable",
      "type": "constructor"
    },
    {
      "anonymous": false,
      "inputs": [
        {
          "indexed": false,
          "internalType": "address",
          "name": "player",
          "type": "address"
        },
        {
          "indexed": false,
          "internalType": "uint256",
          "name": "value",
          "type": "uint256"
        },
        {
          "indexed": false,
          "internalType": "bytes32",
          "name": "_queryId",
          "type": "bytes32"
        }
      ],
      "name": "betPlaced",
      "type": "event"
    },
    {
      "anonymous": false,
      "inputs": [
        {
          "indexed": false,
          "internalType": "bytes32",
          "name": "_queryId",
          "type": "bytes32"
        }
      ],
      "name": "betRandomFailed",
      "type": "event"
    },
    {
      "anonymous": false,
      "inputs": [
        {
          "indexed": false,
          "internalType": "address",
          "name": "player",
          "type": "address"
        },
        {
          "indexed": false,
          "internalType": "uint256",
          "name": "value",
          "type": "uint256"
        }
      ],
      "name": "betResult",
      "type": "event"
    },
    {
      "anonymous": false,
      "inputs": [
        {
          "indexed": false,
          "internalType": "string",
          "name": "message",
          "type": "string"
        }
      ],
      "name": "debug1",
      "type": "event"
    },
    {
      "constant": true,
      "inputs": [],
      "name": "debugCount",
      "outputs": [
        {
          "internalType": "uint256",
          "name": "",
          "type": "uint256"
        }
      ],
      "payable": false,
      "stateMutability": "view",
      "type": "function"
    },
    {
      "constant": true,
      "inputs": [],
      "name": "debugRandom",
      "outputs": [
        {
          "internalType": "uint256",
          "name": "",
          "type": "uint256"
        }
      ],
      "payable": false,
      "stateMutability": "view",
      "type": "function"
    },
    {
      "constant": true,
      "inputs": [],
      "name": "owner",
      "outputs": [
        {
          "internalType": "address",
          "name": "",
          "type": "address"
        }
      ],
      "payable": false,
      "stateMutability": "view",
      "type": "function"
    },
    {
      "constant": true,
      "inputs": [
        {
          "internalType": "bytes32",
          "name": "",
          "type": "bytes32"
        }
      ],
      "name": "playerbets",
      "outputs": [
        {
          "internalType": "address",
          "name": "_address",
          "type": "address"
        },
        {
          "internalType": "uint256",
          "name": "_value",
          "type": "uint256"
        },
        {
          "internalType": "uint256",
          "name": "_coinSide",
          "type": "uint256"
        }
      ],
      "payable": false,
      "stateMutability": "view",
      "type": "function"
    },
    {
      "constant": true,
      "inputs": [],
      "name": "getBalance",
      "outputs": [
        {
          "internalType": "uint256",
          "name": "",
          "type": "uint256"
        }
      ],
      "payable": false,
      "stateMutability": "view",
      "type": "function"
    },
    {
      "constant": true,
      "inputs": [],
      "name": "random",
      "outputs": [
        {
          "internalType": "uint256",
          "name": "val",
          "type": "uint256"
        }
      ],
      "payable": false,
      "stateMutability": "view",
      "type": "function"
    },
    {
      "constant": false,
      "inputs": [
        {
          "internalType": "uint256",
          "name": "userBet",
          "type": "uint256"
        }
      ],
      "name": "betPlace",
      "outputs": [],
      "payable": true,
      "stateMutability": "payable",
      "type": "function"
    },
    {
      "constant": false,
      "inputs": [],
      "name": "fund",
      "outputs": [],
      "payable": true,
      "stateMutability": "payable",
      "type": "function"
    },
    {
      "constant": false,
      "inputs": [],
      "name": "withdrawAll",
      "outputs": [],
      "payable": false,
      "stateMutability": "nonpayable",
      "type": "function"
    },
    {
      "constant": false,
      "inputs": [
        {
          "internalType": "bytes32",
          "name": "_myid",
          "type": "bytes32"
        },
        {
          "internalType": "string",
          "name": "_result",
          "type": "string"
        }
      ],
      "name": "__callback",
      "outputs": [],
      "payable": false,
      "stateMutability": "nonpayable",
      "type": "function"
    },
    {
      "constant": false,
      "inputs": [
        {
          "internalType": "bytes32",
          "name": "_queryId",
          "type": "bytes32"
        },
        {
          "internalType": "string",
          "name": "_result",
          "type": "string"
        },
        {
          "internalType": "bytes",
          "name": "_proof",
          "type": "bytes"
        }
      ],
      "name": "__callback",
      "outputs": [],
      "payable": false,
      "stateMutability": "nonpayable",
      "type": "function"
    },
    {
      "constant": false,
      "inputs": [],
      "name": "update",
      "outputs": [
        {
          "internalType": "bytes32",
          "name": "_queryId",
          "type": "bytes32"
        }
      ],
      "payable": true,
      "stateMutability": "payable",
      "type": "function"
    }
  ],
  "bytecode": "0x6080604052600060075560026008553480156200001b57600080fd5b50336000806101000a81548173ffffffffffffffffffffffffffffffffffffffff021916908373ffffffffffffffffffffffffffffffffffffffff16021790555062000071603060f81b6200008860201b60201c565b62000081620003ee60201b60201c565b50620022d2565b600073ffffffffffffffffffffffffffffffffffffffff16600260009054906101000a900473ffffffffffffffffffffffffffffffffffffffff1673ffffffffffffffffffffffffffffffffffffffff161480620001185750600062000116600260009054906101000a900473ffffffffffffffffffffffffffffffffffffffff166200041b60201b60201c565b145b1562000132576200013060006200042660201b60201c565b505b600260009054906101000a900473ffffffffffffffffffffffffffffffffffffffff1673ffffffffffffffffffffffffffffffffffffffff166338cc48316040518163ffffffff1660e01b8152600401602060405180830381600087803b1580156200019d57600080fd5b505af1158015620001b2573d6000803e3d6000fd5b505050506040513d6020811015620001c957600080fd5b810190808051906020019092919050505073ffffffffffffffffffffffffffffffffffffffff16600160009054906101000a900473ffffffffffffffffffffffffffffffffffffffff1673ffffffffffffffffffffffffffffffffffffffff16146200031857600260009054906101000a900473ffffffffffffffffffffffffffffffffffffffff1673ffffffffffffffffffffffffffffffffffffffff166338cc48316040518163ffffffff1660e01b8152600401602060405180830381600087803b1580156200029a57600080fd5b505af1158015620002af573d6000803e3d6000fd5b505050506040513d6020811015620002c657600080fd5b8101908080519060200190929190505050600160006101000a81548173ffffffffffffffffffffffffffffffffffffffff021916908373ffffffffffffffffffffffffffffffffffffffff1602179055505b600160009054906101000a900473ffffffffffffffffffffffffffffffffffffffff1673ffffffffffffffffffffffffffffffffffffffff1663688dcfd7826040518263ffffffff1660e01b815260040180827effffffffffffffffffffffffffffffffffffffffffffffffffffffffffffff19167effffffffffffffffffffffffffffffffffffffffffffffffffffffffffffff19168152602001915050600060405180830381600087803b158015620003d257600080fd5b505af1158015620003e7573d6000803e3d6000fd5b5050505050565b60008060009050600062030d40905062000411826001836200043f60201b60201c565b9250829250505090565b6000813b9050919050565b60006200043862000a1260201b60201c565b9050919050565b6000808311801562000452575060208311155b6200045c57600080fd5b600a84029350606060016040519080825280601f01601f191660200182016040528015620004995781602001600182028038833980820191505090505b5090508360f81b81600081518110620004ae57fe5b60200101907effffffffffffffffffffffffffffffffffffffffffffffffffffffffffffff1916908160001a905350606060206040519080825280601f01601f191660200182016040528015620005145781602001600182028038833980820191505090505b509050606060206040519080825280601f01601f1916602001820160405280156200054e5781602001600182028038833980820191505090505b50905060006200056362000fe160201b60201c565b905060208352424118600143034018602084015260208252806020830152606060206040519080825280601f01601f191660200182016040528015620005b85781602001600182028038833980820191505090505b509050886020820152606060086040519080825280601f01601f191660200182016040528015620005f85781602001600182028038833980820191505090505b5090506200061382601860088460006200131d60201b60201c565b506200061e620021e1565b604051806080016040528087815260200188815260200186815260200184815250905060006200068b6040518060400160405280600681526020017f72616e646f6d0000000000000000000000000000000000000000000000000000815250838c6200137f60201b60201c565b9050606060086040519080825280601f01601f191660200182016040528015620006c45781602001600182028038833980820191505090505b50905060208401517f0100000000000000000000000000000000000000000000000000000000000000810460278301537e01000000000000000000000000000000000000000000000000000000000000810460268301537d010000000000000000000000000000000000000000000000000000000000810460258301537c0100000000000000000000000000000000000000000000000000000000810460248301537b01000000000000000000000000000000000000000000000000000000810460238301537a010000000000000000000000000000000000000000000000000000810460228301537901000000000000000000000000000000000000000000000000008104602183015378010000000000000000000000000000000000000000000000008104602083015350620009ff8282856001600481106200080557fe5b60200201516002876000600481106200081a57fe5b60200201516040518082805190602001908083835b602083106200085457805182526020820191506020810190506020830392506200082f565b6001836020036101000a038019825116818451168082178552505050505050905001915050602060405180830381855afa15801562000897573d6000803e3d6000fd5b5050506040513d6020811015620008ad57600080fd5b810190808051906020019092919050505087600260048110620008cc57fe5b60200201516040516020018085805190602001908083835b60208310620009095780518252602082019150602081019050602083039250620008e4565b6001836020036101000a03801982511681845116808217855250505050505090500184805190602001908083835b602083106200095c578051825260208201915060208101905060208303925062000937565b6001836020036101000a03801982511681845116808217855250505050505090500183815260200182805190602001908083835b60208310620009b5578051825260208201915060208101905060208303925062000990565b6001836020036101000a038019825116818451168082178552505050505050905001945050505050604051602081830303815290604052805190602001206200171960201b60201c565b8199505050505050505050509392505050565b60008062000a3a731d3b2638a7cc9f2cb3d298a3da7a90b67e5506ed6200041b60201b60201c565b111562000ae657731d3b2638a7cc9f2cb3d298a3da7a90b67e5506ed600260006101000a81548173ffffffffffffffffffffffffffffffffffffffff021916908373ffffffffffffffffffffffffffffffffffffffff16021790555062000adc6040518060400160405280600b81526020017f6574685f6d61696e6e65740000000000000000000000000000000000000000008152506200173560201b60201c565b6001905062000fde565b600062000b0d73c03a2615d5efaf5f49f60b7bb6583eaec212fdf16200041b60201b60201c565b111562000bb95773c03a2615d5efaf5f49f60b7bb6583eaec212fdf1600260006101000a81548173ffffffffffffffffffffffffffffffffffffffff021916908373ffffffffffffffffffffffffffffffffffffffff16021790555062000baf6040518060400160405280600c81526020017f6574685f726f707374656e3300000000000000000000000000000000000000008152506200173560201b60201c565b6001905062000fde565b600062000be073b7a07bcf2ba2f2703b24c0691b5278999c59ac7e6200041b60201b60201c565b111562000c8c5773b7a07bcf2ba2f2703b24c0691b5278999c59ac7e600260006101000a81548173ffffffffffffffffffffffffffffffffffffffff021916908373ffffffffffffffffffffffffffffffffffffffff16021790555062000c826040518060400160405280600981526020017f6574685f6b6f76616e00000000000000000000000000000000000000000000008152506200173560201b60201c565b6001905062000fde565b600062000cb373146500cfd35b22e4a392fe0adc06de1a1368ed486200041b60201b60201c565b111562000d5f5773146500cfd35b22e4a392fe0adc06de1a1368ed48600260006101000a81548173ffffffffffffffffffffffffffffffffffffffff021916908373ffffffffffffffffffffffffffffffffffffffff16021790555062000d556040518060400160405280600b81526020017f6574685f72696e6b6562790000000000000000000000000000000000000000008152506200173560201b60201c565b6001905062000fde565b600062000d8673a2998efd205fb9d4b4963afb70778d6354ad3a416200041b60201b60201c565b111562000e325773a2998efd205fb9d4b4963afb70778d6354ad3a41600260006101000a81548173ffffffffffffffffffffffffffffffffffffffff021916908373ffffffffffffffffffffffffffffffffffffffff16021790555062000e286040518060400160405280600a81526020017f6574685f676f65726c69000000000000000000000000000000000000000000008152506200173560201b60201c565b6001905062000fde565b600062000e59736f485c8bf6fc43ea212e93bbf8ce046c7f1cb4756200041b60201b60201c565b111562000ebf57736f485c8bf6fc43ea212e93bbf8ce046c7f1cb475600260006101000a81548173ffffffffffffffffffffffffffffffffffffffff021916908373ffffffffffffffffffffffffffffffffffffffff1602179055506001905062000fde565b600062000ee67320e12a1f859b3feae5fb2a0a32c18f5a65555bbf6200041b60201b60201c565b111562000f4c577320e12a1f859b3feae5fb2a0a32c18f5a65555bbf600260006101000a81548173ffffffffffffffffffffffffffffffffffffffff021916908373ffffffffffffffffffffffffffffffffffffffff1602179055506001905062000fde565b600062000f737351efaf4c8b3c9afbd5ab9f4bbc82784ab6ef8faa6200041b60201b60201c565b111562000fd9577351efaf4c8b3c9afbd5ab9f4bbc82784ab6ef8faa600260006101000a81548173ffffffffffffffffffffffffffffffffffffffff021916908373ffffffffffffffffffffffffffffffffffffffff1602179055506001905062000fde565b600090505b90565b60008073ffffffffffffffffffffffffffffffffffffffff16600260009054906101000a900473ffffffffffffffffffffffffffffffffffffffff1673ffffffffffffffffffffffffffffffffffffffff161480620010725750600062001070600260009054906101000a900473ffffffffffffffffffffffffffffffffffffffff166200041b60201b60201c565b145b156200108c576200108a60006200042660201b60201c565b505b600260009054906101000a900473ffffffffffffffffffffffffffffffffffffffff1673ffffffffffffffffffffffffffffffffffffffff166338cc48316040518163ffffffff1660e01b8152600401602060405180830381600087803b158015620010f757600080fd5b505af11580156200110c573d6000803e3d6000fd5b505050506040513d60208110156200112357600080fd5b810190808051906020019092919050505073ffffffffffffffffffffffffffffffffffffffff16600160009054906101000a900473ffffffffffffffffffffffffffffffffffffffff1673ffffffffffffffffffffffffffffffffffffffff16146200127257600260009054906101000a900473ffffffffffffffffffffffffffffffffffffffff1673ffffffffffffffffffffffffffffffffffffffff166338cc48316040518163ffffffff1660e01b8152600401602060405180830381600087803b158015620011f457600080fd5b505af115801562001209573d6000803e3d6000fd5b505050506040513d60208110156200122057600080fd5b8101908080519060200190929190505050600160006101000a81548173ffffffffffffffffffffffffffffffffffffffff021916908373ffffffffffffffffffffffffffffffffffffffff1602179055505b600160009054906101000a900473ffffffffffffffffffffffffffffffffffffffff1673ffffffffffffffffffffffffffffffffffffffff1663abaa5f3e6040518163ffffffff1660e01b815260040160206040518083038186803b158015620012db57600080fd5b505afa158015620012f0573d6000803e3d6000fd5b505050506040513d60208110156200130757600080fd5b8101908080519060200190929190505050905090565b60606000828501905080845110156200133557600080fd5b600086602001905060008460200190505b86886020010182101562001370578189015180828801525060208201915060208101905062001346565b85935050505095945050505050565b60008073ffffffffffffffffffffffffffffffffffffffff16600260009054906101000a900473ffffffffffffffffffffffffffffffffffffffff1673ffffffffffffffffffffffffffffffffffffffff16148062001410575060006200140e600260009054906101000a900473ffffffffffffffffffffffffffffffffffffffff166200041b60201b60201c565b145b156200142a576200142860006200042660201b60201c565b505b600260009054906101000a900473ffffffffffffffffffffffffffffffffffffffff1673ffffffffffffffffffffffffffffffffffffffff166338cc48316040518163ffffffff1660e01b8152600401602060405180830381600087803b1580156200149557600080fd5b505af1158015620014aa573d6000803e3d6000fd5b505050506040513d6020811015620014c157600080fd5b810190808051906020019092919050505073ffffffffffffffffffffffffffffffffffffffff16600160009054906101000a900473ffffffffffffffffffffffffffffffffffffffff1673ffffffffffffffffffffffffffffffffffffffff16146200161057600260009054906101000a900473ffffffffffffffffffffffffffffffffffffffff1673ffffffffffffffffffffffffffffffffffffffff166338cc48316040518163ffffffff1660e01b8152600401602060405180830381600087803b1580156200159257600080fd5b505af1158015620015a7573d6000803e3d6000fd5b505050506040513d6020811015620015be57600080fd5b8101908080519060200190929190505050600160006101000a81548173ffffffffffffffffffffffffffffffffffffffff021916908373ffffffffffffffffffffffffffffffffffffffff1602179055505b606060046040519080825280602002602001820160405280156200164957816020015b6060815260200190600190039081620016335790505b509050836000600481106200165a57fe5b6020020151816000815181106200166d57fe5b6020026020010181905250836001600481106200168657fe5b6020020151816001815181106200169957fe5b602002602001018190525083600260048110620016b257fe5b602002015181600281518110620016c557fe5b602002602001018190525083600360048110620016de57fe5b602002015181600381518110620016f157fe5b60200260200101819052506200170f8582856200175160201b60201c565b9150509392505050565b8060046000848152602001908152602001600020819055505050565b80600390805190602001906200174d92919062002209565b5050565b60008073ffffffffffffffffffffffffffffffffffffffff16600260009054906101000a900473ffffffffffffffffffffffffffffffffffffffff1673ffffffffffffffffffffffffffffffffffffffff161480620017e257506000620017e0600260009054906101000a900473ffffffffffffffffffffffffffffffffffffffff166200041b60201b60201c565b145b15620017fc57620017fa60006200042660201b60201c565b505b600260009054906101000a900473ffffffffffffffffffffffffffffffffffffffff1673ffffffffffffffffffffffffffffffffffffffff166338cc48316040518163ffffffff1660e01b8152600401602060405180830381600087803b1580156200186757600080fd5b505af11580156200187c573d6000803e3d6000fd5b505050506040513d60208110156200189357600080fd5b810190808051906020019092919050505073ffffffffffffffffffffffffffffffffffffffff16600160009054906101000a900473ffffffffffffffffffffffffffffffffffffffff1673ffffffffffffffffffffffffffffffffffffffff1614620019e257600260009054906101000a900473ffffffffffffffffffffffffffffffffffffffff1673ffffffffffffffffffffffffffffffffffffffff166338cc48316040518163ffffffff1660e01b8152600401602060405180830381600087803b1580156200196457600080fd5b505af115801562001979573d6000803e3d6000fd5b505050506040513d60208110156200199057600080fd5b8101908080519060200190929190505050600160006101000a81548173ffffffffffffffffffffffffffffffffffffffff021916908373ffffffffffffffffffffffffffffffffffffffff1602179055505b6000600160009054906101000a900473ffffffffffffffffffffffffffffffffffffffff1673ffffffffffffffffffffffffffffffffffffffff16632ef3accc86856040518363ffffffff1660e01b81526004018080602001838152602001828103825284818151815260200191508051906020019080838360005b8381101562001a7b57808201518184015260208101905062001a5e565b50505050905090810190601f16801562001aa95780820380516001836020036101000a031916815260200191505b509350505050602060405180830381600087803b15801562001aca57600080fd5b505af115801562001adf573d6000803e3d6000fd5b505050506040513d602081101562001af657600080fd5b81019080805190602001909291905050509050823a02670de0b6b3a76400000181111562001b2b576000801b91505062001ce2565b606062001b3e8562001ce960201b60201c565b9050600160009054906101000a900473ffffffffffffffffffffffffffffffffffffffff1673ffffffffffffffffffffffffffffffffffffffff1663c55c1cb68360008985896040518663ffffffff1660e01b8152600401808581526020018060200180602001848152602001838103835286818151815260200191508051906020019080838360005b8381101562001be557808201518184015260208101905062001bc8565b50505050905090810190601f16801562001c135780820380516001836020036101000a031916815260200191505b50838103825285818151815260200191508051906020019080838360005b8381101562001c4e57808201518184015260208101905062001c31565b50505050905090810190601f16801562001c7c5780820380516001836020036101000a031916815260200191505b5096505050505050506020604051808303818588803b15801562001c9f57600080fd5b505af115801562001cb4573d6000803e3d6000fd5b50505050506040513d602081101562001ccc57600080fd5b8101908080519060200190929190505050925050505b9392505050565b606062001cfb62001da460201b60201c565b62001d0562002290565b62001d1e8161040062001db060201b620036311760201c565b62001d348162001dfd60201b6200367b1760201c565b60008090505b835181101562001d805762001d7284828151811062001d5557fe5b60200260200101518362001e1360201b620036891790919060201c565b808060010191505062001d3a565b5062001d978162001e4760201b620036ae1760201c565b8060000151915050919050565b60405180590338823950565b600081905060006020828162001dc257fe5b061462001ddd576020818162001dd457fe5b06602003810190505b808360200181815250506040518084526000815281810160405250505050565b62001e1081600462001e5d60201b60201c565b50565b62001e28826002835162001e8560201b60201c565b62001e4281836200200d60201b6200381d1790919060201c565b505050565b62001e5a81600762001e5d60201b60201c565b50565b62001e81601f60058360ff16901b1783620020cd60201b620038c81790919060201c565b5050565b6017811162001eba5762001eb48160058460ff16901b60ff161784620020cd60201b620038c81790919060201c565b62002008565b60ff811162001f0b5762001ee7601860058460ff16901b1784620020cd60201b620038c81790919060201c565b62001f04816001856200211660201b62003908179092919060201c565b5062002007565b61ffff811162001f5d5762001f39601960058460ff16901b1784620020cd60201b620038c81790919060201c565b62001f56816002856200211660201b62003908179092919060201c565b5062002006565b63ffffffff811162001fb15762001f8d601a60058460ff16901b1784620020cd60201b620038c81790919060201c565b62001faa816004856200211660201b62003908179092919060201c565b5062002005565b67ffffffffffffffff8111620020045762001fe5601b60058460ff16901b1784620020cd60201b620038c81790919060201c565b62002002816008856200211660201b62003908179092919060201c565b505b5b5b5b5b505050565b6200201762002290565b826020015183600001515183510111156200205857620020578360026200204a866020015186516200219060201b60201c565b02620021ae60201b60201c565b5b60008060008451905085518051602081830101945086518101825260208701935050505b60208110620020a157815183526020830192506020820191506020810390506200207c565b60006001826020036101000a039050801983511681855116818117865250508694505050505092915050565b81602001516001836000015151011115620020fc57620020fb826002846020015102620021ae60201b60201c565b5b815180516020818301018381536001820183525050505050565b6200212062002290565b8360200151846000015151830111156200215f576200215e846002620021518760200151866200219060201b60201c565b02620021ae60201b60201c565b5b60006001836101000a0390508451805184818301018684198251161781528582018352505050849150509392505050565b600081831115620021a457829050620021a8565b8190505b92915050565b606082600001519050620021c9838362001db060201b60201c565b620021db83826200200d60201b60201c565b50505050565b60405180608001604052806004905b6060815260200190600190039081620021f05790505090565b828054600181600116156101000203166002900490600052602060002090601f016020900481019282601f106200224c57805160ff19168380011785556200227d565b828001600101855582156200227d579182015b828111156200227c5782518255916020019190600101906200225f565b5b5090506200228c9190620022aa565b5090565b604051806040016040528060608152602001600081525090565b620022cf91905b80821115620022cb576000816000905550600101620022b1565b5090565b90565b613b0980620022e26000396000f3fe6080604052600436106100a75760003560e01c806370f9ba331161006457806370f9ba3314610396578063853828b6146103c15780638da5cb5b146103d8578063a2e620451461042f578063b60d42881461044d578063e0a2d79d14610457576100a7565b806312065fe0146100ac57806320545650146100d757806327dc297e1461010257806338bbfa50146101d457806350aea6cf1461033d5780635ec01e4d1461036b575b600080fd5b3480156100b857600080fd5b506100c16104e0565b6040518082815260200191505060405180910390f35b3480156100e357600080fd5b506100ec6104ff565b6040518082815260200191505060405180910390f35b34801561010e57600080fd5b506101d26004803603604081101561012557600080fd5b81019080803590602001909291908035906020019064010000000081111561014c57600080fd5b82018360208201111561015e57600080fd5b8035906020019184600183028401116401000000008311171561018057600080fd5b91908080601f016020809104026020016040519081016040528093929190818152602001838380828437600081840152601f19601f820116905080830192505050505050509192919290505050610505565b005b3480156101e057600080fd5b5061033b600480360360608110156101f757600080fd5b81019080803590602001909291908035906020019064010000000081111561021e57600080fd5b82018360208201111561023057600080fd5b8035906020019184600183028401116401000000008311171561025257600080fd5b91908080601f016020809104026020016040519081016040528093929190818152602001838380828437600081840152601f19601f820116905080830192505050505050509192919290803590602001906401000000008111156102b557600080fd5b8201836020820111156102c757600080fd5b803590602001918460018302840111640100000000831117156102e957600080fd5b91908080601f016020809104026020016040519081016040528093929190818152602001838380828437600081840152601f19601f820116905080830192505050505050509192919290505050610548565b005b6103696004803603602081101561035357600080fd5b8101908080359060200190929190505050610854565b005b34801561037757600080fd5b50610380610a3f565b6040518082815260200191505060405180910390f35b3480156103a257600080fd5b506103ab610a51565b6040518082815260200191505060405180910390f35b3480156103cd57600080fd5b506103d6610a57565b005b3480156103e457600080fd5b506103ed610b10565b604051808273ffffffffffffffffffffffffffffffffffffffff1673ffffffffffffffffffffffffffffffffffffffff16815260200191505060405180910390f35b610437610b35565b6040518082815260200191505060405180910390f35b610455610b5a565b005b34801561046357600080fd5b506104906004803603602081101561047a57600080fd5b8101908080359060200190929190505050610b5c565b604051808473ffffffffffffffffffffffffffffffffffffffff1673ffffffffffffffffffffffffffffffffffffffff168152602001838152602001828152602001935050505060405180910390f35b60003073ffffffffffffffffffffffffffffffffffffffff1631905090565b60085481565b610544828260006040519080825280601f01601f19166020018201604052801561053e5781602001600182028038833980820191505090505b50610548565b5050565b6007546002016008819055506007600081548092919060010191905055507f30a208ad0a033cd2130f6d71d41947a11e5c44462f5790516410a735876c80b96040518080602001828103825260138152602001807f496e205f5f63616c6c6261636b2028746f70290000000000000000000000000081525060200191505060405180910390a16105d6610ba6565b73ffffffffffffffffffffffffffffffffffffffff163373ffffffffffffffffffffffffffffffffffffffff161461060d57600080fd5b600061061a848484610ec6565b60ff161461065e577fa6af99c314c55e5c45ce1d19046a3e47c8b940d9f854e05db54b592579c586fb836040518082815260200191505060405180910390a161084f565b60006002836040516020018082805190602001908083835b602083106106995780518252602082019150602081019050602083039250610676565b6001836020036101000a0380198251168184511680821785525050505050509050019150506040516020818303038152906040528051906020012060001c816106de57fe5b06905060008090508160088190555060066000868152602001908152602001600020600201548214156107ab576002600660008781526020019081526020016000206001015402905060006006600087815260200190815260200160002060000160009054906101000a900473ffffffffffffffffffffffffffffffffffffffff1690508073ffffffffffffffffffffffffffffffffffffffff166108fc839081150290604051600060405180830381858888f193505050501580156107a8573d6000803e3d6000fd5b50505b7fd96097a76e17fc43d7c002890c299852f10ba36fdda7a94538129f07efb0edfd6006600087815260200190815260200160002060000160009054906101000a900473ffffffffffffffffffffffffffffffffffffffff1682604051808373ffffffffffffffffffffffffffffffffffffffff1673ffffffffffffffffffffffffffffffffffffffff1681526020018281526020019250505060405180910390a150505b505050565b66038d7ea4c680008034101561086957600080fd5b60003073ffffffffffffffffffffffffffffffffffffffff163190506002818161088f57fe5b04341115610905576040517f08c379a00000000000000000000000000000000000000000000000000000000081526004018080602001828103825260158152602001807f426574207374616b6520697320746f6f2068696768000000000000000000000081525060200191505060405180910390fd5b6000809050600062030d409050600061092083600184610ff6565b905060405180606001604052803373ffffffffffffffffffffffffffffffffffffffff168152602001348152602001878152506006600083815260200190815260200160002060008201518160000160006101000a81548173ffffffffffffffffffffffffffffffffffffffff021916908373ffffffffffffffffffffffffffffffffffffffff16021790555060208201518160010155604082015181600201559050507f7653145a23e9db44686f4214262036bd4467aab46cc518c43b0149e3956bd949333483604051808473ffffffffffffffffffffffffffffffffffffffff1673ffffffffffffffffffffffffffffffffffffffff168152602001838152602001828152602001935050505060405180910390a1505050505050565b600060024281610a4b57fe5b06905090565b60075481565b6000809054906101000a900473ffffffffffffffffffffffffffffffffffffffff1673ffffffffffffffffffffffffffffffffffffffff163373ffffffffffffffffffffffffffffffffffffffff1614610ab057600080fd5b3373ffffffffffffffffffffffffffffffffffffffff166108fc3073ffffffffffffffffffffffffffffffffffffffff16319081150290604051600060405180830381858888f19350505050158015610b0d573d6000803e3d6000fd5b50565b6000809054906101000a900473ffffffffffffffffffffffffffffffffffffffff1681565b60008060009050600062030d409050610b5082600183610ff6565b9250829250505090565b565b60066020528060005260406000206000915090508060000160009054906101000a900473ffffffffffffffffffffffffffffffffffffffff16908060010154908060020154905083565b60008073ffffffffffffffffffffffffffffffffffffffff16600260009054906101000a900473ffffffffffffffffffffffffffffffffffffffff1673ffffffffffffffffffffffffffffffffffffffff161480610c2e57506000610c2c600260009054906101000a900473ffffffffffffffffffffffffffffffffffffffff16611591565b145b15610c3f57610c3d600061159c565b505b600260009054906101000a900473ffffffffffffffffffffffffffffffffffffffff1673ffffffffffffffffffffffffffffffffffffffff166338cc48316040518163ffffffff1660e01b8152600401602060405180830381600087803b158015610ca957600080fd5b505af1158015610cbd573d6000803e3d6000fd5b505050506040513d6020811015610cd357600080fd5b810190808051906020019092919050505073ffffffffffffffffffffffffffffffffffffffff16600160009054906101000a900473ffffffffffffffffffffffffffffffffffffffff1673ffffffffffffffffffffffffffffffffffffffff1614610e1e57600260009054906101000a900473ffffffffffffffffffffffffffffffffffffffff1673ffffffffffffffffffffffffffffffffffffffff166338cc48316040518163ffffffff1660e01b8152600401602060405180830381600087803b158015610da257600080fd5b505af1158015610db6573d6000803e3d6000fd5b505050506040513d6020811015610dcc57600080fd5b8101908080519060200190929190505050600160006101000a81548173ffffffffffffffffffffffffffffffffffffffff021916908373ffffffffffffffffffffffffffffffffffffffff1602179055505b600160009054906101000a900473ffffffffffffffffffffffffffffffffffffffff1673ffffffffffffffffffffffffffffffffffffffff1663c281d19e6040518163ffffffff1660e01b815260040160206040518083038186803b158015610e8657600080fd5b505afa158015610e9a573d6000803e3d6000fd5b505050506040513d6020811015610eb057600080fd5b8101908080519060200190929190505050905090565b60007f4c0000000000000000000000000000000000000000000000000000000000000082600081518110610ef657fe5b602001015160f81c60f81b7effffffffffffffffffffffffffffffffffffffffffffffffffffffffffffff1916141580610f8957507f500000000000000000000000000000000000000000000000000000000000000082600181518110610f5957fe5b602001015160f81c60f81b7effffffffffffffffffffffffffffffffffffffffffffffffffffffffffffff191614155b80610fb55750600160ff1682600281518110610fa157fe5b602001015160f81c60f81b60f81c60ff1614155b15610fc35760019050610fef565b6000610fd8838686610fd36115ad565b61164f565b905080610fe9576002915050610fef565b60009150505b9392505050565b60008083118015611008575060208311155b61101157600080fd5b600a84029350606060016040519080825280601f01601f19166020018201604052801561104d5781602001600182028038833980820191505090505b5090508360f81b8160008151811061106157fe5b60200101907effffffffffffffffffffffffffffffffffffffffffffffffffffffffffffff1916908160001a905350606060206040519080825280601f01601f1916602001820160405280156110c65781602001600182028038833980820191505090505b509050606060206040519080825280601f01601f1916602001820160405280156110ff5781602001600182028038833980820191505090505b509050600061110c611cfa565b905060208352424118600143034018602084015260208252806020830152606060206040519080825280601f01601f1916602001820160405280156111605781602001600182028038833980820191505090505b509050886020820152606060086040519080825280601f01601f19166020018201604052801561119f5781602001600182028038833980820191505090505b5090506111b2826018600884600061201a565b506111bb6139ae565b604051806080016040528087815260200188815260200186815260200184815250905060006112206040518060400160405280600681526020017f72616e646f6d0000000000000000000000000000000000000000000000000000815250838c612079565b9050606060086040519080825280601f01601f1916602001820160405280156112585781602001600182028038833980820191505090505b50905060208401517f0100000000000000000000000000000000000000000000000000000000000000810460278301537e01000000000000000000000000000000000000000000000000000000000000810460268301537d010000000000000000000000000000000000000000000000000000000000810460258301537c0100000000000000000000000000000000000000000000000000000000810460248301537b01000000000000000000000000000000000000000000000000000000810460238301537a01000000000000000000000000000000000000000000000000000081046022830153790100000000000000000000000000000000000000000000000000810460218301537801000000000000000000000000000000000000000000000000810460208301535061157e82828560016004811061139757fe5b60200201516002876000600481106113ab57fe5b60200201516040518082805190602001908083835b602083106113e357805182526020820191506020810190506020830392506113c0565b6001836020036101000a038019825116818451168082178552505050505050905001915050602060405180830381855afa158015611425573d6000803e3d6000fd5b5050506040513d602081101561143a57600080fd5b81019080805190602001909291905050508760026004811061145857fe5b60200201516040516020018085805190602001908083835b602083106114935780518252602082019150602081019050602083039250611470565b6001836020036101000a03801982511681845116808217855250505050505090500184805190602001908083835b602083106114e457805182526020820191506020810190506020830392506114c1565b6001836020036101000a03801982511681845116808217855250505050505090500183815260200182805190602001908083835b6020831061153b5780518252602082019150602081019050602083039250611518565b6001836020036101000a038019825116818451168082178552505050505050905001945050505050604051602081830303815290604052805190602001206123e8565b8199505050505050505050509392505050565b6000813b9050919050565b60006115a6612404565b9050919050565b606060038054600181600116156101000203166002900480601f0160208091040260200160405190810160405280929190818152602001828054600181600116156101000203166002900480156116455780601f1061161a57610100808354040283529160200191611645565b820191906000526020600020905b81548152906001019060200180831161162857829003601f168201915b5050505050905090565b600080602060028760458151811061166357fe5b602001015160f81c60f81b60f81c60ff1601604401019050606060206040519080825280601f01601f1916602001820160405280156116b15781602001600182028038833980820191505090505b5090506116c38783602084600061201a565b50600284876040516020018083805190602001908083835b602083106116fe57805182526020820191506020810190506020830392506116db565b6001836020036101000a038019825116818451168082178552505050505050905001828152602001925050506040516020818303038152906040526040518082805190602001908083835b6020831061176c5780518252602082019150602081019050602083039250611749565b6001836020036101000a038019825116818451168082178552505050505050905001915050602060405180830381855afa1580156117ae573d6000803e3d6000fd5b5050506040513d60208110156117c357600080fd5b8101908080519060200190929190505050604051602001808281526020019150506040516020818303038152906040528051906020012081805190602001201461181257600092505050611cf2565b6060600288600160498601018151811061182857fe5b602001015160f81c60f81b60f81c60ff16016040519080825280601f01601f19166020018201604052801561186c5781602001600182028038833980820191505090505b5090506118818860498501835184600061201a565b5061194c6002826040518082805190602001908083835b602083106118bb5780518252602082019150602081019050602083039250611898565b6001836020036101000a038019825116818451168082178552505050505050905001915050602060405180830381855afa1580156118fd573d6000803e3d6000fd5b5050506040513d602081101561191257600080fd5b8101908080519060200190929190505050878a600860208801018151811061193657fe5b602001015160f81c60f81b60f81c60ff1661295b565b61195c5760009350505050611cf2565b606060296040519080825280601f01601f1916602001820160405280156119925781602001600182028038833980820191505090505b5090506119a78960208601602984600061201a565b506060604080519080825280601f01601f1916602001820160405280156119dd5781602001600182028038833980820191505090505b5090506000604184516029602089010101019050611a038b60408303604085600061201a565b5060006002836040518082805190602001908083835b60208310611a3c5780518252602082019150602081019050602083039250611a19565b6001836020036101000a038019825116818451168082178552505050505050905001915050602060405180830381855afa158015611a7e573d6000803e3d6000fd5b5050506040513d6020811015611a9357600080fd5b8101908080519060200190929190505050905083816040516020018083805190602001908083835b60208310611ade5780518252602082019150602081019050602083039250611abb565b6001836020036101000a0380198251168184511680821785525050505050509050018281526020019250505060405160208183030381529060405280519060200120600460008d8152602001908152602001600020541415611b5657600460008c815260200190815260200160002060009055611b66565b6000975050505050505050611cf2565b606060496040519080825280601f01601f191660200182016040528015611b9c5781602001600182028038833980820191505090505b509050611bae8d89604984600061201a565b50611c576002826040518082805190602001908083835b60208310611be85780518252602082019150602081019050602083039250611bc5565b6001836020036101000a038019825116818451168082178552505050505050905001915050602060405180830381855afa158015611c2a573d6000803e3d6000fd5b5050506040513d6020811015611c3f57600080fd5b81019080805190602001909291905050508786612a0b565b611c6c57600098505050505050505050611cf2565b6005600083815260200190815260200160002060009054906101000a900460ff16611cc657611c9b8d84612bc9565b6005600084815260200190815260200160002060006101000a81548160ff0219169083151502179055505b6005600083815260200190815260200160002060009054906101000a900460ff16985050505050505050505b949350505050565b60008073ffffffffffffffffffffffffffffffffffffffff16600260009054906101000a900473ffffffffffffffffffffffffffffffffffffffff1673ffffffffffffffffffffffffffffffffffffffff161480611d8257506000611d80600260009054906101000a900473ffffffffffffffffffffffffffffffffffffffff16611591565b145b15611d9357611d91600061159c565b505b600260009054906101000a900473ffffffffffffffffffffffffffffffffffffffff1673ffffffffffffffffffffffffffffffffffffffff166338cc48316040518163ffffffff1660e01b8152600401602060405180830381600087803b158015611dfd57600080fd5b505af1158015611e11573d6000803e3d6000fd5b505050506040513d6020811015611e2757600080fd5b810190808051906020019092919050505073ffffffffffffffffffffffffffffffffffffffff16600160009054906101000a900473ffffffffffffffffffffffffffffffffffffffff1673ffffffffffffffffffffffffffffffffffffffff1614611f7257600260009054906101000a900473ffffffffffffffffffffffffffffffffffffffff1673ffffffffffffffffffffffffffffffffffffffff166338cc48316040518163ffffffff1660e01b8152600401602060405180830381600087803b158015611ef657600080fd5b505af1158015611f0a573d6000803e3d6000fd5b505050506040513d6020811015611f2057600080fd5b8101908080519060200190929190505050600160006101000a81548173ffffffffffffffffffffffffffffffffffffffff021916908373ffffffffffffffffffffffffffffffffffffffff1602179055505b600160009054906101000a900473ffffffffffffffffffffffffffffffffffffffff1673ffffffffffffffffffffffffffffffffffffffff1663abaa5f3e6040518163ffffffff1660e01b815260040160206040518083038186803b158015611fda57600080fd5b505afa158015611fee573d6000803e3d6000fd5b505050506040513d602081101561200457600080fd5b8101908080519060200190929190505050905090565b606060008285019050808451101561203157600080fd5b600086602001905060008460200190505b86886020010182101561206a5781890151808288015250602082019150602081019050612042565b85935050505095945050505050565b60008073ffffffffffffffffffffffffffffffffffffffff16600260009054906101000a900473ffffffffffffffffffffffffffffffffffffffff1673ffffffffffffffffffffffffffffffffffffffff161480612101575060006120ff600260009054906101000a900473ffffffffffffffffffffffffffffffffffffffff16611591565b145b1561211257612110600061159c565b505b600260009054906101000a900473ffffffffffffffffffffffffffffffffffffffff1673ffffffffffffffffffffffffffffffffffffffff166338cc48316040518163ffffffff1660e01b8152600401602060405180830381600087803b15801561217c57600080fd5b505af1158015612190573d6000803e3d6000fd5b505050506040513d60208110156121a657600080fd5b810190808051906020019092919050505073ffffffffffffffffffffffffffffffffffffffff16600160009054906101000a900473ffffffffffffffffffffffffffffffffffffffff1673ffffffffffffffffffffffffffffffffffffffff16146122f157600260009054906101000a900473ffffffffffffffffffffffffffffffffffffffff1673ffffffffffffffffffffffffffffffffffffffff166338cc48316040518163ffffffff1660e01b8152600401602060405180830381600087803b15801561227557600080fd5b505af1158015612289573d6000803e3d6000fd5b505050506040513d602081101561229f57600080fd5b8101908080519060200190929190505050600160006101000a81548173ffffffffffffffffffffffffffffffffffffffff021916908373ffffffffffffffffffffffffffffffffffffffff1602179055505b6060600460405190808252806020026020018201604052801561232857816020015b60608152602001906001900390816123135790505b5090508360006004811061233857fe5b60200201518160008151811061234a57fe5b60200260200101819052508360016004811061236257fe5b60200201518160018151811061237457fe5b60200260200101819052508360026004811061238c57fe5b60200201518160028151811061239e57fe5b6020026020010181905250836003600481106123b657fe5b6020020151816003815181106123c857fe5b60200260200101819052506123de858285612fe1565b9150509392505050565b8060046000848152602001908152602001600020819055505050565b600080612424731d3b2638a7cc9f2cb3d298a3da7a90b67e5506ed611591565b11156124c657731d3b2638a7cc9f2cb3d298a3da7a90b67e5506ed600260006101000a81548173ffffffffffffffffffffffffffffffffffffffff021916908373ffffffffffffffffffffffffffffffffffffffff1602179055506124bd6040518060400160405280600b81526020017f6574685f6d61696e6e6574000000000000000000000000000000000000000000815250613547565b60019050612958565b60006124e573c03a2615d5efaf5f49f60b7bb6583eaec212fdf1611591565b11156125875773c03a2615d5efaf5f49f60b7bb6583eaec212fdf1600260006101000a81548173ffffffffffffffffffffffffffffffffffffffff021916908373ffffffffffffffffffffffffffffffffffffffff16021790555061257e6040518060400160405280600c81526020017f6574685f726f707374656e330000000000000000000000000000000000000000815250613547565b60019050612958565b60006125a673b7a07bcf2ba2f2703b24c0691b5278999c59ac7e611591565b11156126485773b7a07bcf2ba2f2703b24c0691b5278999c59ac7e600260006101000a81548173ffffffffffffffffffffffffffffffffffffffff021916908373ffffffffffffffffffffffffffffffffffffffff16021790555061263f6040518060400160405280600981526020017f6574685f6b6f76616e0000000000000000000000000000000000000000000000815250613547565b60019050612958565b600061266773146500cfd35b22e4a392fe0adc06de1a1368ed48611591565b11156127095773146500cfd35b22e4a392fe0adc06de1a1368ed48600260006101000a81548173ffffffffffffffffffffffffffffffffffffffff021916908373ffffffffffffffffffffffffffffffffffffffff1602179055506127006040518060400160405280600b81526020017f6574685f72696e6b656279000000000000000000000000000000000000000000815250613547565b60019050612958565b600061272873a2998efd205fb9d4b4963afb70778d6354ad3a41611591565b11156127ca5773a2998efd205fb9d4b4963afb70778d6354ad3a41600260006101000a81548173ffffffffffffffffffffffffffffffffffffffff021916908373ffffffffffffffffffffffffffffffffffffffff1602179055506127c16040518060400160405280600a81526020017f6574685f676f65726c6900000000000000000000000000000000000000000000815250613547565b60019050612958565b60006127e9736f485c8bf6fc43ea212e93bbf8ce046c7f1cb475611591565b111561284d57736f485c8bf6fc43ea212e93bbf8ce046c7f1cb475600260006101000a81548173ffffffffffffffffffffffffffffffffffffffff021916908373ffffffffffffffffffffffffffffffffffffffff16021790555060019050612958565b600061286c7320e12a1f859b3feae5fb2a0a32c18f5a65555bbf611591565b11156128d0577320e12a1f859b3feae5fb2a0a32c18f5a65555bbf600260006101000a81548173ffffffffffffffffffffffffffffffffffffffff021916908373ffffffffffffffffffffffffffffffffffffffff16021790555060019050612958565b60006128ef7351efaf4c8b3c9afbd5ab9f4bbc82784ab6ef8faa611591565b1115612953577351efaf4c8b3c9afbd5ab9f4bbc82784ab6ef8faa600260006101000a81548173ffffffffffffffffffffffffffffffffffffffff021916908373ffffffffffffffffffffffffffffffffffffffff16021790555060019050612958565b600090505b90565b600080600190508284511461296f57600080fd5b60008090505b838110156129ff5784818151811061298957fe5b602001015160f81c60f81b7effffffffffffffffffffffffffffffffffffffffffffffffffffffffffffff19168682602081106129c257fe5b1a60f81b7effffffffffffffffffffffffffffffffffffffffffffffffffffffffffffff1916146129f257600091505b8080600101915050612975565b50809150509392505050565b6000806000806000606060206040519080825280601f01601f191660200182016040528015612a495781602001600182028038833980820191505090505b5090506000602089600381518110612a5d57fe5b602001015160f81c60f81b60f81c60ff16036004019050612a838982602085600061201a565b9150606060206040519080825280601f01601f191660200182016040528015612abb5781602001600182028038833980820191505090505b509050602282019150612af78a60208c6001860381518110612ad957fe5b602001015160f81c60f81b60f81c60ff16038401602084600061201a565b90506020830151945060208101519350612b148b601b8787613561565b80975081985050508573ffffffffffffffffffffffffffffffffffffffff16898051906020012060001c73ffffffffffffffffffffffffffffffffffffffff161415612b6a576001975050505050505050612bc2565b612b778b601c8787613561565b80975081985050508573ffffffffffffffffffffffffffffffffffffffff16898051906020012060001c73ffffffffffffffffffffffffffffffffffffffff16149750505050505050505b9392505050565b60008060606002856001860181518110612bdf57fe5b602001015160f81c60f81b60f81c60ff16016040519080825280601f01601f191660200182016040528015612c235781602001600182028038833980820191505090505b509050612c358585835184600061201a565b506060604080519080825280601f01601f191660200182016040528015612c6b5781602001600182028038833980820191505090505b509050612c7e866004604084600061201a565b50606060626040519080825280601f01601f191660200182016040528015612cb55781602001600182028038833980820191505090505b509050600160f81b81600081518110612cca57fe5b60200101907effffffffffffffffffffffffffffffffffffffffffffffffffffffffffffff1916908160001a905350612d0b8760418803604184600161201a565b5060606040518060400160405280602081526020017ffd94fa71bc0ba10d39d464d0d8f465efeef0a2764e3887fcc9df41ded20f505c8152509050612d56816000602085604261201a565b50612dff6002836040518082805190602001908083835b60208310612d905780518252602082019150602081019050602083039250612d6d565b6001836020036101000a038019825116818451168082178552505050505050905001915050602060405180830381855afa158015612dd2573d6000803e3d6000fd5b5050506040513d6020811015612de757600080fd5b81019080805190602001909291905050508585612a0b565b945084612e1457600095505050505050612fdb565b6060604051806060016040528060408152602001613a95604091399050606060426040519080825280601f01601f191660200182016040528015612e675781602001600182028038833980820191505090505b50905060fe60f81b81600081518110612e7c57fe5b60200101907effffffffffffffffffffffffffffffffffffffffffffffffffffffffffffff1916908160001a905350612ebb8a6003604184600161201a565b50606060028b604581518110612ecd57fe5b602001015160f81c60f81b60f81c60ff16016040519080825280601f01601f191660200182016040528015612f115781602001600182028038833980820191505090505b509050612f248b6044835184600061201a565b50612fcd6002836040518082805190602001908083835b60208310612f5e5780518252602082019150602081019050602083039250612f3b565b6001836020036101000a038019825116818451168082178552505050505050905001915050602060405180830381855afa158015612fa0573d6000803e3d6000fd5b5050506040513d6020811015612fb557600080fd5b81019080805190602001909291905050508285612a0b565b975087985050505050505050505b92915050565b60008073ffffffffffffffffffffffffffffffffffffffff16600260009054906101000a900473ffffffffffffffffffffffffffffffffffffffff1673ffffffffffffffffffffffffffffffffffffffff16148061306957506000613067600260009054906101000a900473ffffffffffffffffffffffffffffffffffffffff16611591565b145b1561307a57613078600061159c565b505b600260009054906101000a900473ffffffffffffffffffffffffffffffffffffffff1673ffffffffffffffffffffffffffffffffffffffff166338cc48316040518163ffffffff1660e01b8152600401602060405180830381600087803b1580156130e457600080fd5b505af11580156130f8573d6000803e3d6000fd5b505050506040513d602081101561310e57600080fd5b810190808051906020019092919050505073ffffffffffffffffffffffffffffffffffffffff16600160009054906101000a900473ffffffffffffffffffffffffffffffffffffffff1673ffffffffffffffffffffffffffffffffffffffff161461325957600260009054906101000a900473ffffffffffffffffffffffffffffffffffffffff1673ffffffffffffffffffffffffffffffffffffffff166338cc48316040518163ffffffff1660e01b8152600401602060405180830381600087803b1580156131dd57600080fd5b505af11580156131f1573d6000803e3d6000fd5b505050506040513d602081101561320757600080fd5b8101908080519060200190929190505050600160006101000a81548173ffffffffffffffffffffffffffffffffffffffff021916908373ffffffffffffffffffffffffffffffffffffffff1602179055505b6000600160009054906101000a900473ffffffffffffffffffffffffffffffffffffffff1673ffffffffffffffffffffffffffffffffffffffff16632ef3accc86856040518363ffffffff1660e01b81526004018080602001838152602001828103825284818151815260200191508051906020019080838360005b838110156132f05780820151818401526020810190506132d5565b50505050905090810190601f16801561331d5780820380516001836020036101000a031916815260200191505b509350505050602060405180830381600087803b15801561333d57600080fd5b505af1158015613351573d6000803e3d6000fd5b505050506040513d602081101561336757600080fd5b81019080805190602001909291905050509050823a02670de0b6b3a76400000181111561339a576000801b915050613540565b60606133a5856135a5565b9050600160009054906101000a900473ffffffffffffffffffffffffffffffffffffffff1673ffffffffffffffffffffffffffffffffffffffff1663c55c1cb68360008985896040518663ffffffff1660e01b8152600401808581526020018060200180602001848152602001838103835286818151815260200191508051906020019080838360005b8381101561344a57808201518184015260208101905061342f565b50505050905090810190601f1680156134775780820380516001836020036101000a031916815260200191505b50838103825285818151815260200191508051906020019080838360005b838110156134b0578082015181840152602081019050613495565b50505050905090810190601f1680156134dd5780820380516001836020036101000a031916815260200191505b5096505050505050506020604051808303818588803b1580156134ff57600080fd5b505af1158015613513573d6000803e3d6000fd5b50505050506040513d602081101561352a57600080fd5b8101908080519060200190929190505050925050505b9392505050565b806003908051906020019061355d9291906139d5565b5050565b60008060008060405188815287602082015286604082015285606082015260208160808360006001610bb8f192508051915050818193509350505094509492505050565b60606135af613625565b6135b7613a55565b6135c381610400613631565b6135cc8161367b565b60008090505b835181101561360e576136018482815181106135ea57fe5b60200260200101518361368990919063ffffffff16565b80806001019150506135d2565b50613618816136ae565b8060000151915050919050565b60405180590338823950565b600081905060006020828161364257fe5b061461365b576020818161365257fe5b06602003810190505b808360200181815250506040518084526000815281810160405250505050565b6136868160046136bc565b50565b61369682600283516136dd565b6136a9818361381d90919063ffffffff16565b505050565b6136b98160076136bc565b50565b6136d9601f60058360ff16901b17836138c890919063ffffffff16565b5050565b60178111613709576137048160058460ff16901b60ff1617846138c890919063ffffffff16565b613818565b60ff811161374a5761372e601860058460ff16901b17846138c890919063ffffffff16565b613744816001856139089092919063ffffffff16565b50613817565b61ffff811161378c57613770601960058460ff16901b17846138c890919063ffffffff16565b613786816002856139089092919063ffffffff16565b50613816565b63ffffffff81116137d0576137b4601a60058460ff16901b17846138c890919063ffffffff16565b6137ca816004856139089092919063ffffffff16565b50613815565b67ffffffffffffffff8111613814576137fc601b60058460ff16901b17846138c890919063ffffffff16565b613812816008856139089092919063ffffffff16565b505b5b5b5b5b505050565b613825613a55565b826020015183600001515183510111156138555761385483600261384e8660200151865161396f565b0261398b565b5b60008060008451905085518051602081830101945086518101825260208701935050505b6020811061389c5781518352602083019250602082019150602081039050613879565b60006001826020036101000a039050801983511681855116818117865250508694505050505092915050565b816020015160018360000151510111156138ee576138ed82600284602001510261398b565b5b815180516020818301018381536001820183525050505050565b613910613a55565b83602001518460000151518301111561393e5761393d84600261393787602001518661396f565b0261398b565b5b60006001836101000a0390508451805184818301018684198251161781528582018352505050849150509392505050565b60008183111561398157829050613985565b8190505b92915050565b60608260000151905061399e8383613631565b6139a8838261381d565b50505050565b60405180608001604052806004905b60608152602001906001900390816139bd5790505090565b828054600181600116156101000203166002900490600052602060002090601f016020900481019282601f10613a1657805160ff1916838001178555613a44565b82800160010185558215613a44579182015b82811115613a43578251825591602001919060010190613a28565b5b509050613a519190613a6f565b5090565b604051806040016040528060608152602001600081525090565b613a9191905b80821115613a8d576000816000905550600101613a75565b5090565b9056fe7fb956469c5c9b89840d55b43537e66a98dd4811ea0a27224272c2e5622911e8537a2f8e86a46baec82864e98dd01e9ccc2f8bc5dfc9cbe5a91a290498dd96e4a265627a7a723158208ac08a9ffbad2998a1e9a456dfd04d3646c9eea36d8952196ad8c41d2c86573c64736f6c634300050c0032",
  "source": "// SPDX-License-Identifier: MIT\nimport \"./Ownable.sol\";\nimport \"./provableAPI.sol\";\n\n//import \"github.com/provable-things/ethereum-api/provableAPI.sol\";\npragma solidity 0.5.12;\n\ncontract FlipOracle is Ownable, usingProvable {\n\n    uint256 constant NUM_RANDOM_BYTES_REQUESTED = 1;\n\n    struct Player {\n        address _address;\n        uint _value;\n        uint _coinSide;\n    }\n    mapping(bytes32 => Player) public playerbets;\n\n    event betPlaced(address player, uint value, bytes32 _queryId);\n    event betResult(address player, uint value);\n    event betRandomFailed(bytes32 _queryId);\n    event debug1(string message);\n    uint public debugCount = 0;\n    uint public debugRandom = 2;\n    \n    modifier costs(uint cost){\n        require(msg.value >= cost);\n        _;\n    }\n\n    constructor()\n        public\n    {\n        provable_setProof(proofType_Ledger);\n        update();\n    }\n\n    function getBalance() public view returns(uint) {\n        return address(this).balance;\n    }\n\n    // Pseudo random function \n    // Returns 0 or 1\n    function random() public view returns(uint val) {\n        return block.timestamp % 2;\n    }\n\n    function betPlace(uint userBet) public payable costs(0.001 ether) {\n        uint balance = address(this).balance;\n        require(msg.value <= balance / 2, \"Bet stake is too high\");\n        \n        // Call oracle for random number\n        uint256 QUERY_EXECUTION_DELAY = 0;\n        uint256 GAS_FOR_CALLBACK = 200000;\n        bytes32 _queryId = provable_newRandomDSQuery(\n            QUERY_EXECUTION_DELAY,\n            NUM_RANDOM_BYTES_REQUESTED,\n            GAS_FOR_CALLBACK\n        );\n        //emit LogNewProvableQuery(\"Provable query was sent, standing by for the answer...\");\n        \n        playerbets[_queryId] = Player(msg.sender, msg.value, userBet);\n        emit betPlaced(msg.sender, msg.value, _queryId);\n    }\n/*\n    function betResult() {\n        uint win = 0;\n        if (random() == userBet) {\n        //if (1 == 1) {\n            win = msg.value * 2;\n            msg.sender.transfer(win);\n        }\n        emit betResult(msg.sender, win);\n    }\n*/\n    function fund() public payable {\n    }\n\n    function withdrawAll() public onlyOwner {\n        //address payable payAddress = address(owner);\n        msg.sender.transfer(address(this).balance);\n    }\n\n\n    function __callback(bytes32 _queryId, string memory _result, bytes memory _proof ) public {\n        debugRandom = 2 + debugCount;\n        debugCount++;\n        emit debug1(\"In __callback (top)\");\n        require(msg.sender == provable_cbAddress());\n\n        if (\n            provable_randomDS_proofVerify__returnCode(\n                _queryId,\n                _result,\n                _proof\n            ) != 0\n        ) {\n            /**\n             * @notice  The proof verification has failed! Handle this case\n             *          however you see fit.\n             */\n             emit betRandomFailed(_queryId);\n        } else {\n            /**\n             *\n             * @notice  The proof verifiction has passed!\n             *\n             *          Let's convert the random bytes received from the query\n             *          to a `uint256`.\n             *\n             *          To do so, We define the variable `ceiling`, where\n             *          `ceiling - 1` is the highest `uint256` we want to get.\n             *          The variable `ceiling` should never be greater than:\n             *          `(MAX_INT_FROM_BYTE ^ NUM_RANDOM_BYTES_REQUESTED) - 1`.\n             *\n             *          By hashing the random bytes and casting them to a\n             *          `uint256` we can then modulo that number by our ceiling\n             *          in order to get a random number within the desired\n             *          range of [0, ceiling - 1].\n             *\n             */\n            //uint256 ceiling = (MAX_INT_FROM_BYTE ** NUM_RANDOM_BYTES_REQUESTED) - 1;\n            uint256 randomNumber = uint256(keccak256(abi.encodePacked(_result))) % 2;\n            //emit generatedRandomNumber(randomNumber);\n            //playerbets[_queryId] = Player(msg.sender, msg.value, userBet);\n            uint win = 0;\n            debugRandom = randomNumber;\n            if (randomNumber == playerbets[_queryId]._coinSide) {\n            //if (1 == 1) {\n                win = playerbets[_queryId]._value * 2;\n                address payable playerWallet = address(uint160(playerbets[_queryId]._address));\n                playerWallet.transfer(win);\n            }\n            emit betResult(playerbets[_queryId]._address, win);\n        }\n    }\n\n    function update() payable public returns (bytes32 _queryId) {\n        uint256 QUERY_EXECUTION_DELAY = 0;\n        uint256 GAS_FOR_CALLBACK = 200000;\n        _queryId = provable_newRandomDSQuery(\n            QUERY_EXECUTION_DELAY,\n            NUM_RANDOM_BYTES_REQUESTED,\n            GAS_FOR_CALLBACK\n        );\n        //emit LogNewProvableQuery(\"Provable query was sent, standing by for the answer...\");\n        return _queryId;\n    }\n\n\n    //fallback() external payable {}\n    //fallback() public payable {} \n\n\n}\n",
  "sourcePath": "/mnt/luca/Informatica/IvanOnTech/ethereum-smart-contract-programming-202/Oracle/FlipCoin_with_Oracle/contracts/FlipOracle.sol",
  "compiler": {
    "name": "solc",
    "version": "0.5.12+commit.7709ece9.Emscripten.clang"
  },
  "schemaVersion": "3.2.5",
  "updatedAt": "2020-10-03T00:49:48.956Z",
  "networkType": "ethereum",
  "devdoc": {
    "methods": {
      "__callback(bytes32,string)": {
        "details": "The following `__callback` functions are just placeholders ideally     meant to be defined in child contract when proofs are used.     The function bodies simply silence compiler warnings."
      }
    }
  },
  "userdoc": {
    "methods": {}
  }
}